:02000004080AE8
:1000000000000A0830330A08000006000600050157
:0800100004027C050000000061
:04001800A42E0A0800
:10001C0009480A4908B5884205D0094A824202D0EB
:10002C00121A02F0D9FE0748074A0021121A02F0F0
:10003C00DEFE064808BD00BF0000002094320A080E
:10004C007400002074000020A8060020A8060020E0
:10005C0070B501F041F9074B074C1E46E41AA40891
:10006C000025A54204D056F8253098470135F8E70D
:10007C0070BD00BF44320A0884320A0800F014B87C
:10008C0008B500F0A5F8BDE8084001F0E7B800F0AD
:10009C0029BE00F02FBE0078B0FA80F040097047FE
:1000AC0001230370704700001FB501F0D9FC4FF419
:1000BC00E13101F0BBFC01F0D3FC1A4900F029FF3F
:1000CC00194B0221188801F013FF01F06FFF572321
:1000DC000146164A164800F0CDFA28B901F0C0FCCA
:1000EC00144900F016FFFEE701F0BAFC124900F0CB
:1000FC0010FF40F29B124FF4C8714FF480538DE8FF
:10010C000E000B48032304221F2100F072FB0A216E
:10011C00074800F0DEFA0648002105B05DF804EB54
:10012C0000F0E1BAB82E0A0804000020801A06007C
:10013C0080000020C82E0A08FC2E0A0810B51D4BA2
:10014C0088B0188801F0E5FE002831D101F088FC58
:10015C00194900F0DEFE194B186802F0FDF9024651
:10016C000B4604A8164900F073FE164B049A1B7834
:10017C0015498DF8003002A83C2301F01BFA039CB2
:10018C007CB16368013B63605BB9236820469B6864
:10019C009847A368013BA3601BB923682046DB6822
:1001AC0098470A4B186800F0F7FF04A800F0F6FD1A
:1001BC0008B010BD04000020382F0A08C40000202D
:1001CC00442F0A087C000020492F0A080000002058
:1001DC002DE9F347424800F035FA054600F0EAF8FD
:1001EC00404F414E002841D000F0EEFBDFF81C815F
:1001FC00D8F80030C41A00F0E7FBC8F8000020461D
:10020C0002F098F90022394B02F024FB02460B460F
:10021C000020374902F01EFB02F0EAFC3549386039
:10022C00814602F083FD08B33349484602F09CFD39
:10023C00E0B1484602F0A2FDDFF8D4A0DFF8D4808C
:10024C009AF8004008F8040098F8002098F801305B
:10025C000134134498F8022004F00304134498F872
:10026C0003208AF8004013449B10336001F0F8FB24
:10027C00224900F03BFE01F0F3FB0A22294600F074
:10028C007EFE01F0EDFB1E4900F030FE01F0E8FBB4
:10029C000446386802F060F90223024600932046B7
:1002AC000B4600F03FFF01F0DBFB164900F01EFE91
:1002BC0001F0D6FB0A22316800F083FE4CF24F337A
:1002CC009D4204DC01F0CCFB0F4900F00FFE01F065
:1002DC00C7FB00F012FE02B0BDE8F047FFF72EBFDF
:1002EC0080000020C40000207800002000408F40D7
:1002FC0000004E4000007F430000A0415B2F0A0825
:10030C005F2F0A08662F0A08712F0A08BC0000200C
:10031C00C8000020C000002008B5054B01221A704F
:10032C0000F01AFBBDE80840024800F0ADB800BF71
:10033C007C000020800000200368C3EBC13103EB7C
:10034C002113036043F3CF30704700001649F0B51A
:10035C000E46164D164F2B78A3F10B0202F01F021E
:10036C0021F8130031F91200A3F1160E000300223C
:10037C000EEB02019C1A01F01F0104F01F0436F869
:10038C0011C036F8141037F912406144013209B229
:10039C000B2A04FB0100EBD1013303F01F032B707C
:1003AC0040F3CF30F0BD00BFDA0000201A0100206E
:1003BC007E2F0A08F8B5294D82B2294C2B8811469C
:1003CC0028482380FFF7B8FF274B1880101A00B27B
:1003DC00FFF7BCFFB4F900202880002A234C2449E5
:1003EC001ADA030418D4234E234DB6F90030234FE8
:1003FC002B80234DB5F900503D805B1B40F2D2356C
:10040C00153B0127AB4227804FF000070F80378048
:10041C008CBF0023012300E00023002A07DD002805
:10042C0005DC01260E80164E002525803580B4F99A
:10043C0000409042D4BF002404F001040CB10D4CD8
:10044C002080B1F900109042ACBF002201F00102F3
:10045C000AB10B4A10801846F8BD00BFD800002026
:10046C00D6000020D0000020CA0000201C01002073
:10047C00CC0000201E0100200A00002008000020F3
:10048C00D400002000F068BA704770B504461646D8
:10049C000D46006801F035FC2068314603689B6806
:1004AC0098470021206801F033FC0122294620687E
:1004BC0001F01FFC206803681B69984720B1206875
:1004CC0003685B699847C0B270BD04220179FFF7DD
:1004DC00DCBF06220179FFF7D8BF2DE9F7430446AC
:1004EC00FFF7F7FF05462046FFF7EFFF854200F0C8
:1004FC008E80471B4FF05701206848BF2037667924
:10050C0001F003FC2068072103687E439B68984731
:10051C00206801F001FC06EB46064FF020084FF076
:10052C000009002E74DD202EC9BF6579354605EB18
:10053C00450598FBF5F3C8BF5D4357212A46206853
:10054C00761B01F0D9FB002DEBDD94F838302068D8
:10055C00013303F0030384F8383003688DF80790F7
:10056C005B6998478DF80600206803685B699847BB
:10057C008DF80500206803685B6998478DF80400C6
:10058C0094F83830019A0233C2F3110244F8232054
:10059C006379012B19D9206803685B6998478DF83A
:1005AC000600206803685B6998478DF80500206891
:1005BC0003685B6998478DF8040094F83830019A09
:1005CC000633C2F3110244F823206379022B19D9A4
:1005DC00206803685B6998478DF8060020680368FB
:1005EC005B6998478DF80500206803685B6998473C
:1005FC008DF8040094F83830019A0A33C2F31102D2
:10060C0044F823206379A3EB83031D449BE7002765
:10061C00B8B203B0BDE8F08370B505460E4600F0E5
:10062C00D3F9044600F0D0F9001BB04208D8284694
:10063C00FFF753FF012804D0012000F0ADFDF1E7D6
:10064C00002070BD10B5FA210446FFF7E5FF20B17C
:10065C0094F83830063354F8230010BDFF2201798A
:10066C00FFF713BF10B5FE2201790446FFF70DFF0B
:10067C00A07110BD70B5044616461D460846216093
:10068C0001F028FB3146206801F020FB2571204643
:10069C00FFF7E4FF152804D12046FFF7E3FF012004
:1006AC0070BD002070BD70B5044616461D4600682E
:1006BC0001F027FB2068314603689B689847206847
:1006CC00294603689A6890472068BDE8704001F09D
:1006DC0023BB0B460C220179FFF7E5BF0B460D221D
:1006EC000179FFF7E0BF0B460E220179FFF7DBBF64
:1006FC000B4610220179FFF7D6BF10B504460179DD
:10070C0000230422FFF7CFFF217920460023052286
:10071C00FFF7C9FF21792046BDE8104000230622CF
:10072C00FFF7C1BF2DE9F0410E4615460A46017987
:10073C0004461F46FFF7A9FE284047EA000332464D
:10074C0021792046BDE8F041FFF7ADBF38B5BF2297
:10075C00402309210446FFF7E5FF00F035F9054673
:10076C0000F032F9401B63280AD80922217920466F
:10077C00FFF78BFE430603D5012000F00DFDEFE7DC
:10078C0038BD0B46F8220921FFF7CCBF0B469F2240
:10079C000A21FFF7C7BF0B46E3220A21FFF7C2BFAE
:1007AC000B46FC220A21FFF7BDBF0B461F22082176
:1007BC00FFF7B8BF1023EF220821FFF7B3BF0139B1
:1007CC001346032914D8DFE801F002040A0CF822BE
:1007DC0003E01B0103F0F0038F22112106E0F82245
:1007EC0003E01B0103F0F0038F221221FFF79ABFE5
:1007FC0070472DE9F047164608AD044695E82006EB
:10080C0088461F46FFF7A2FF012E01D1002112E0FE
:10081C00022E01D120210EE0042E01D140210AE04C
:10082C00082E01D1602106E0102E01D1802102E0BA
:10083C00202EF3D1A0212046FFF7B7FF2046FFF76B
:10084C00B9FF032F01D1072103E0022F0CBF0321B5
:10085C0002212046FFF795FFBAF5805F677101DA38
:10086C0000210BE0BAF5005F01DA202106E0BAF5B1
:10087C00804F01DA402101E0F2D160212046FFF7E0
:10088C0085FF632D01DC00211EE0C72D01DC042156
:10089C001AE0B5F5C87F01DA082115E0B5F5487FF7
:1008AC0001DA0C2110E0B5F57A7F01DA10210BE0AA
:1008BC00B5F5C86F01DA142106E0B5F5486F01DA19
:1008CC00182101E0DFD11C212046FFF764FFB9F1AC
:1008DC00750F01DC00210EE0B9F1D60F01DC01210E
:1008EC0009E0B9F5CD7F01DC022104E040F29B1355
:1008FC009945EFD103212046FFF752FF4146204690
:10090C00FFF7E7FE41462046FFF7E8FE414620464A
:10091C00FFF7E9FE41462046FFF7EAFE01221146A9
:10092C002046FFF74CFF012F0CD920238F221121D9
:10093C002046FFF7F7FE022F04D003221146204673
:10094C00FFF73DFF2046BDE8F047FFF7D6BE00F0AD
:10095C0003B800F001B8000008B5024B1B681B6817
:10096C00019308BDB001060808B5024B1B689B68D3
:10097C00019308BDB001060808B5024B1B68DB6883
:10098C00019308BDB001060808B5024B1B685B69F2
:10099C00019308BDB001060808B5024B1B68DB6962
:1009AC00019308BDB401060808B5024B1B681B6A0D
:1009BC00019308BDB401060808B5024B1B685B68BF
:1009CC00019308BD9C01060808B5024B1B685B69C6
:1009DC00019308BD9C01060808B5024B1B681B6BF4
:1009EC00019308BDD001060808B5024B1B689B6932
:1009FC00019308BDC401060808B5024B1B685B6A6D
:100A0C00019308BDC401060808B5024B1B689B6A1C
:100A1C00019308BDC401060808B5024B1B68DB6ACC
:100A2C00019308BDC401060808B5024B1B681B6B7B
:100A3C00019308BDC401060808B5024B1B685B6B2B
:100A4C00019308BDC401060808B5024B1B689B6BDB
:100A5C00019308BDC401060808B5024B1B681B6C4A
:100A6C00019308BDC401060808B5024B1B681B6C3A
:100A7C00019308BDAC01060808B5024B1B68DB6C82
:100A8C00019308BDAC01060808B5024B1B685B6DF1
:100A9C00019308BDAC01060808B5024B1B689B6DA1
:100AAC00019308BDAC01060808B5024B1B68DB6D51
:100ABC00019308BDAC01060808B5024B1B681B6E00
:100ACC00019308BDAC01060808B5024B1B685B6EB0
:100ADC00019308BDAC01060808B5024B1B689B6E60
:100AEC00019308BDAC01060808B5024B1B68DB6E10
:100AFC00019308BDAC01060808B5024B1B681B6FBF
:100B0C00019308BDAC01060808B5024B1B685B6F6E
:100B1C00019308BDAC01060808B5034B1B68D3F85C
:100B2C008030019308BD0000AC01060808B5024BEB
:100B3C001B681B68019308BDD801060808B5024B59
:100B4C001B685B68019308BDD801060808B5024B09
:100B5C001B681B69019308BDD801060808B5024B38
:100B6C001B685B69019308BDD801060808B5024BE8
:100B7C001B689B69019308BDD801060808B5024B98
:100B8C001B68DB69019308BDD801060808B5024B48
:100B9C001B681B6A019308BDD801060808B5024BF7
:100BAC001B689B6C019308BDC001060808B5024B7D
:100BBC001B685B68019308BDA401060808B5024BCD
:100BCC001B685B69019308BDA401060808B5024BBC
:100BDC001B68DB6C019308BDA401060808B5024B29
:100BEC001B685B6D019308BDA401060808B5034B97
:100BFC001B68D3F89030019308BD0000A4010608CF
:100C0C0008B5034B1B68D3F89C30019308BD00005A
:100C1C00A401060808B5024B1B685B68019308BD6C
:100C2C00C801060808B5024B1B689B68019308BDF8
:100C3C00C801060808B5024B1B68DB68019308BDA8
:100C4C00C801060808B5024B1B681B69019308BD57
:100C5C00C801060808B5024B1B685B69019308BD07
:100C6C00C801060808B5024B1B689B69019308BDB7
:100C7C00C801060808B5024B1B68DB69019308BD67
:100C8C00C801060808B5024B1B681B6A019308BD16
:100C9C00C801060808B5024B1B681B6B019308BD05
:100CAC00C801060808B5024B1B685B6B019308BDB5
:100CBC00C801060808B5024B1B685B69019308BDA7
:100CCC00CC01060808B5024B1B681B6A019308BDD2
:100CDC00CC01060808B5024B1B68DB6B019308BD01
:100CEC00CC01060808B5024B1B681B68019308BDB4
:100CFC00A001060808B5024B1B685B68019308BD90
:100D0C00A001060808B5024B1B689B68019308BD3F
:100D1C00A001060808B5024B1B685B6A019308BD6D
:100D2C00A001060808B5024B1B68DB6A019308BDDD
:100D3C00A001060808B5024B1B681B6B019308BD8C
:100D4C00A0010608704710B50446102101F053F9B4
:100D5C00204610BD70B504460E46074B00250360B7
:100D6C0040F80C5FFFF738FE30462671FFF714FE93
:100D7C00A560204670BD00BFA02F0A080079FFF7C0
:100D8C0013BE00004FF6FF72034B00201870588002
:100D9C009A80FFF70BBF00BF2001002010B504465E
:100DAC000068FFF7A7FF204610BD10B50446006889
:100DBC0008B1FFF79FFF00232360A360636010BDA1
:100DCC0038B504460D4600680131FFF79BFF10B1A2
:100DDC0084E82100012038BD10B50368044613B126
:100DEC0043688B4207D22046FFF7EAFF20B1A36885
:100DFC000BB922681370012010BD70B50E46114658
:100E0C0004461546FFF7E8FF18B92046FFF7CDFF5B
:100E1C0009E02A463146A560206801F0DDFF226812
:100E2C00A3680021D154204670BD38B50023044678
:100E3C0003604360836003730D4639B1084602F0CA
:100E4C0022F8294602462046FFF7D7FF204638BD38
:100E5C000EB4FFB509AC54F8047B054623463A465C
:100E6C00052102A80194FFF755FF06460B492846B9
:100E7C00FFF7DBFF31462846FFF7AEFF286830B19D
:100E8C0023463A46711C0194FFF744FFA86028469C
:100E9C0004B0BDE8F04003B0704700BF5E300A08F4
:100EAC00F8B506460D468F180024BD420CD03368A9
:100EBC0015F8011B9B6830469847002801DB044459
:100ECC00F3E7002C08BF04462046F8BD70B5054674
:100EDC000C46084649B101F0D6FF2B680246214664
:100EEC002846BDE87040DB68184770BD08B5FFF7B1
:100EFC00EDFF08BD03689B68184738B50D21054602
:100F0C00FFF7F8FF0A2104462846FFF7F3FF2044B9
:100F1C0038BD38B50546FFF7D9FF04462846FFF71C
:100F2C00ECFF204438BD012A98BF0A2230B50B468D
:100F3C008BB000218DF824100DF12304B3FBF2F5D6
:100F4C0005FB1233DBB2092B94BF30333733DBB2E2
:100F5C00214604F801392B46002DEFD1FFF7B6FFDF
:100F6C000BB030BD10B422B90368C9B29B6810BC79
:100F7C001847D2B210BCFFF7D6BFFFF7F3BF2DE96D
:100F8C00F04107460E4615462AB9BDE8F041036804
:100F9C00C9B29B6818470A2A02D1002901DA04E079
:100FAC00D2B2BDE8F041FFF7BEBF2D21FFF7A2FF83
:100FBC002A46044671423846FFF7B5FF2044BDE887
:100FCC00F081FFF7DCBF00002DE9F843194680469D
:100FDC00104617461E469DF8205001F0ABFD08B197
:100FEC00474912E026F000444FF0FF32454B38469B
:100FFC00214601F09FFD68B94FF0FF32414B384656
:10100C00214601F079FD28B93F494046FFF75EFFC4
:10101C00BDE8F8834FF060423C4B3846314601F056
:10102C007FFD08B13A49F0E74FF06042394B384642
:10103C00314601F057FD0028F4D100220023384638
:10104C00314601F04FFD38B12D214046FFF752FFDC
:10105C0006F10046044600E004462F494FF0000913
:10106C0000205FFA89F39D4206D900222B4B01F038
:10107C00F1FB09F10109F4E73A46334601F00EF9A8
:10108C000F46064601F094FD0A2201468146404671
:10109C00FFF749FF04447DB3484601F03BFA024692
:1010AC000B463046394601F0F7F806460F464046E7
:1010BC001B49FFF70BFF0444184B002230463946FE
:1010CC0001F09EFA0F46064601F04AFD0A2201463F
:1010DC0081464046FFF753FF0444484601F02AFA84
:1010EC0002460B463046394601F0D6F8013D15F064
:1010FC00FF0506460F46DFD12046BDE8F88300BF4A
:10110C00A82F0A08FFFFEF7FB02F0A08FFFFEF415F
:10111C00AC2F0A08FFFFEFC10000E03F00002440A5
:10112C00C62E0A089DF800100091FFF74DBF002352
:10113C001A4619464068FFF78DBD38B50468054658
:10114C007CB16368013B63605BB9236820469B6894
:10115C009847A368013BA3601BB923682046DB6852
:10116C009847284638BD0B68036013B15A680132A2
:10117C005A607047014A024B1A6070472A300A08BD
:10118C0028010020024B1A68024B1A60704700BFFE
:10119C000C0000202C0100200021FFF70FBD10B522
:1011AC008368044613B1032201469847204610BDBC
:1011BC0010B50446FFF7F3FF204610BD13B50B46E0
:1011CC00044603C88DE8030093E8030084E8030099
:1011DC009DE8030083E8030002B010BD0348002320
:1011EC008360034A034900F001BF00BF30010020B7
:1011FC0074000020BD110A0808B5144B33B100F07F
:10120C002FFC03681B699847002816DC104B33B180
:10121C0000F0E4FC03681B699847002810DC0D4BB8
:10122C000BB1AFF300800C4B7BB100F055FC0368A5
:10123C001B699847002806DC08BDAFF30080E5E782
:10124C00AFF30080EBE7AFF3008008BD00000000B7
:10125C0000000000000000000000000008B5FFF7CF
:10126C00CBFFFFF7B1FB014B186008BDD405002084
:10127C000248034A0349121A01F0AEBD0040024075
:10128C000440024090320A0807B5002300931A4626
:10129C006FF07701FFF7B4FC03B05DF804FB0000BE
:1012AC0007B543880A2B08D0502B09D1094B1B6872
:1012BC003BB103B05DF804EB1847FFF7E5FF06E020
:1012CC00002300931A466FF07701FFF799FC03B0E7
:1012DC005DF804FB4001002038B5104C104D23681C
:1012EC00AB42104B0CBF012200221A7002D0FFF748
:1012FC00BFFF2560FFF760FB044601F081FD0A4B40
:10130C0013B12046AFF3008000210748FFF7E2FC41
:10131C00BDE8384000210548FFF768BC004002409A
:10132C001E1C279A4401002000000000AD120A0880
:10133C0070470020704710B50446102100F05BFE8A
:10134C00204610BD08B508B1FFF7F5FF08BD002217
:10135C0002604FF69C72828010B5B1F90440848013
:10136C008A8002680C6804600A6010BD10B50446DF
:10137C000068FFF7BFFC204610BD38B5C468F4B157
:10138C002378022B03D104F10C00FFF7EFFF656803
:10139C0035B12846FFF703FF1021284600F02BFE3D
:1013AC00A56835B12846FFF7FAFE1021284600F053
:1013BC0022FE2046BDE83840142100F01CBE38BD8A
:1013CC0013B5044691E8050000234B600B602060C8
:1013DC00626001A801930093FFF7AFFE204602B0B4
:1013EC0010BDF7B50C4606460F4654F8043B02AD4B
:1013FC0045F8083D214601A8FFF7B5FE29463046C1
:10140C00FFF7DEFF01A8FFF798FE2046FFF795FED9
:10141C003846082100F0EFFD304603B0F0BD000067
:10142C0038B500230446036010200D46FEF72FFE4E
:10143C0028B1012343608360024BC56003602060C8
:10144C00204638BDC8300A08826810B50AB900F0C9
:10145C00D4FDC368BDE81040184708B5006800F11A
:10146C001001FFF7F1FF08BD826810B50AB900F052
:10147C00C4FDC368BDE81040184708B5006800F10A
:10148C001001FFF7F1FF08BD38B5002383608B68AE
:10149C0004460D462BB102229847EB68E360AB681B
:1014AC00A360204638BD0000F0B589B004686846DA
:1014BC00FFF74DFF4FF0020200238DF80830D4E8FF
:1014CC004F3F002B03D1C4E8412F0029F7D102D0A4
:1014DC008DF8083063E014F10C0503D069462846FA
:1014EC00FFF735FFBFF35F8F01236370BFF35F8F8F
:1014FC0004F10803002053E8006F43E80002002ABF
:10150C00F9D1BFF35F8F002E49D0FFF75FFB20B1FD
:10151C0029463046FFF798FF3AE0314602A8FFF71C
:10152C00B3FFE068B4F9105008B101F091FC0690DB
:10153C001020ADF81C50FEF7AAFD0546E8B10027B7
:10154C0087601820FEF7A3FD044688B1014687602A
:10155C0002A8FFF733FE049BA268A360059B0492CC
:10156C00E26806A9E36004F110000592FFF7EFFEB4
:10157C000D4B2C60EB600D4BAB6006A8FFF7F6FE35
:10158C0002A8FFF70CFE002229460948FFF726FBAC
:10159C003046FFF704FE1021304600F02CFD684663
:1015AC00FFF7E4FE09B0F0BD67140A08DD160A085F
:1015BC00351C0A082DE9F04F8BB006460F469046B5
:1015CC0099469DF850A0FFF775FB07AD834630BBDD
:1015DC004FF62E73059005A92846ADF81830FFF785
:1015EC00B6FE1420FEF753FD044658B102230370D7
:1015FC0001234370C0F804B0C0F808B029460C3081
:10160C00FFF7A5FE3046214640F8044BFFF708FFD4
:10161C002846FFF7ABFE05A8FFF7A8FE52E0002412
:10162C000C2314206C60AC600793FEF730FD014670
:10163C0018B1047044704460846004A80391FFF7EF
:10164C00EFFE224B08200893FEF721FD044628B13B
:10165C00039B04A940F8043BFFF785FD00955FFA56
:10166C008AF34A46414638460994FFF72BFB20B9CA
:10167C00039B5B7803F0FF0283B1039B04A906A8CC
:10168C000593FFF770FD05A93046FFF799FE06A8F4
:10169C00FFF753FD04A8FFF750FD13E04FF69C73C2
:1016AC0005A903A80592ADF81830FFF7FDFE05A8B3
:1016BC00FFF75CFE05A80999FFF793FE06A8FFF754
:1016CC003CFDDAE730460BB0BDE8F08F4D180A0848
:1016DC00022AF8B5044606D0032A17D0012A22D1D3
:1016EC000B6803601FE018200E68FEF7D0FC05465F
:1016FC0050B13146FFF7C8FE3069B6F9147008B125
:10170C0001F0A6FB2861AF8225600CE0046854B19F
:10171C0004F11000FFF72AFE2046FFF740FD1821C8
:10172C00204600F068FC0020F8BD38B5002383602B
:10173C008B6804460D462BB102229847EB68E36098
:10174C00AB68A360204638BD022A70B5044606D0AB
:10175C00032A11D0012A18D10B68036015E014205C
:10176C000E68FEF794FC054620B13146FFF7DDFF0D
:10177C00337C2B74256008E0046834B12046FFF7F5
:10178C000EFD1421204600F036FC002070BD000038
:10179C00F0B50C46BFF35F8F87B0002350E8006FA5
:1017AC0040E80032002AF9D1BFF35F8F002E3FD002
:1017BC001846FFF70BFA074620B121463046FFF7D3
:1017CC0053FE2EE0314601A8FFF7AFFF237810201F
:1017DC008DF81430FEF75BFC0546D0B18760142001
:1017EC00FEF755FC044678B18760014601A8FFF767
:1017FC00E5FC039BA268A360049B0392E268E36090
:10180C009DF81430049223740A4B2C60EB600A4B45
:10181C00AB6001A8FFF7C3FC002229460748FFF77D
:10182C00DDF93046FFF7BBFC1021304600F0E3FB3E
:10183C0007B0F0BD87140A0855170A08351C0A08AA
:10184C0030B5044685B00D4668461146FFF7C9FD14
:10185C007CB124B228460DB101F0FAFA029002A92B
:10186C006846ADF80C40FFF71FFE02A8FFF77EFD9F
:10187C001DE04FF0010200988DF80840D0E84F3F72
:10188C00A34203D1C0E8412F0029F7D102D08DF833
:10189C0008300CE010F10C014FF0010318BF03737A
:1018AC00BFF35F8F043000F8033CFFF771FF01A812
:1018BC00FFF743FC05B030BD704710B50446182146
:1018CC0000F099FB204610BDF8B50F4600F1080654
:1018DC00051D002416F8011D0A223846FFF74DFBA2
:1018EC00AE42044407D0002CF4D02E213846FFF72A
:1018FC0001FB0444EEE72046F8BD000010B5044699
:10190C00044B112240F8043B002101F070FA2046F0
:10191C0010BD00BFE4300A080346074A10B543F86F
:10192C00042B01F1100251F8044B914243F8044B83
:10193C00F9D10A781A7010BDE4300A08024A4160E5
:10194C000260042202757047E4300A0810B59DF855
:10195C00084044EA032343EA024242EA01610423B9
:10196C004160037510BD000037B5044D05609DF84E
:10197C0018500095FFF7EAFF03B030BDE4300A08B9
:10198C0041747047704708B50021007CFFF7EEF8F2
:10199C0030EA200028BF4FF0FF3008BD08B5012108
:1019AC00007CFFF7E3F830EA200028BF4FF0FF304F
:1019BC0008BD08B5007CFFF7D1F820EAE07008BD3F
:1019CC0008B5007CFFF7C2F820EAE07008BD007C87
:1019DC00FFF7DCB810B50446142100F00CFB2046D0
:1019EC0010BD38B50446007C0D46FFF7B7F800284B
:1019FC0001DC607C28B12946207CFFF7BFF820EA87
:101A0C00E07038BD10B50446002363604FF47A7360
:101A1C00A360054B084623600123217463741146AF
:101A2C00FFF784F8204610BDF8300A080022007C2D
:101A3C00FFF784B810B504461422002101F0D7F941
:101A4C00054B20466360054BE36040F20113238194
:101A5C008123238210BD00BFCD0100204C0100204A
:101A6C0030B50E4D87B001A8FFF7E4FF296811F0DF
:101A7C00010410D12846FEF70EFB60B101AA2146E5
:101A8C000748FFF7BFFF2846FEF70AFB054A064941
:101A9C00034800F0ABFA024807B030BD4801002003
:101AAC00D00200207400002091190A0810B50446D9
:101ABC001422002101F09BF9054B20466360054B75
:101ACC00E36040F2011323818123238210BD00BF08
:101ADC0080030020E802002010B50E4C86B001A84F
:101AEC00FFF7E4FF2368DB0710D42046FEF7D3FA98
:101AFC0060B101AA01210848FFF784FF2046FEF7D8
:101B0C00CFFA064A0649044800F070FA024806B0BB
:101B1C0010BD00BFE40200206C0300207400002004
:101B2C0091190A0870474174704708B5007CFEF79C
:101B3C0093FF20EAE07008BD08B5007CFEF764FF57
:101B4C0020EAE07008BD08B5007CFEF76DFF30EAB6
:101B5C00200028BF4FF0FF3008BD08B5007CFEF711
:101B6C005BFF30EA200028BF4FF0FF3008BD007C3F
:101B7C00FEF762BF10B50446142100F03CFA204673
:101B8C0010BD70B5457C04460E4625B9007CFEF7A9
:101B9C0063FF002805DD3146207CBDE87040FEF770
:101BAC002BBF284670BD000010B5044608461146F0
:101BBC00002262604FF47A72A260054A207422609F
:101BCC00012262741A46FEF70FFF204610BD00BFBB
:101BDC0028310A08007CFEF737BF000038B50C4DE1
:101BEC00296811F0010411D12846FEF754FA68B1A6
:101BFC00084A2146084B0948FFF7D6FF2846FEF74E
:101C0C004FFA074A0749054800F0F0F9034838BD78
:101C1C001C050020200500209804002084040020CE
:101C2C0074000020311B0A0810B5836804460BB9F8
:101C3C0000F0E3F9C3689847A3681BB1032221465F
:101C4C00204698472046BDE81040102100F0D3B93B
:101C5C007047F8B5064615460C468F18BC4206D0A0
:101C6C00336814F8011B9B6830469847F6E7284602
:101C7C00F8BD0022007CFEF71FBF0021007CFEF7A0
:101C8C0023BF0021007CFEF727BF0021007CFEF75C
:101C9C002BBF0021007CFEF72FBF10B5044614218A
:101CAC0000F0A9F9204610BD10B5044608464FF4C3
:101CBC007A73A360044B0021207461602360FEF7EB
:101CCC002BFF204610BD00BF58310A080022007CB3
:101CDC00FEF7CABE00231A461946007CFEF7CCBE9E
:101CEC0013B50024007C0094FEF7CEFEC0B202B007
:101CFC0010BD0123FFF7F4BF0123D2B2C9B2FFF725
:101D0C00EFBF0022007CFEF7C7BEC9B2FFF7F9BFD8
:101D1C000022007CFEF7C8BE0121FFF7F9BF0021AD
:101D2C00007CFEF7F1BE002211464068FEF78ABF28
:101D3C00F0B5164689B011220F460446002103A8BF
:101D4C0001F055F8304601F09EF80025009581B25F
:101D5C007B6803AA3046FEF721FF20B129462046B6
:101D6C00FFF7ECFD03E003A92046FFF7D5FD204665
:101D7C0009B0F0BD002211464068FEF783BF002277
:101D8C0011464068FEF78EBF00224068FEF782BF06
:101D9C00002281F001014068FEF76CBF00231A4657
:101DAC0019464068FEF75EBF002211464068FEF7F8
:101DBC0039BF002202214068FEF73CBF00231A46BF
:101DCC004068FEF727BF0000024B04225A60024A0B
:101DDC001A607047A405002080310A0800231A46B7
:101DEC004068FEF717BF002202214068FEF722BFB1
:101DFC00002211464068FEF715BF002211464068CC
:101E0C00FEF720BF00231A4619464068FEF722BF92
:101E1C0000231A4619464068FEF724BF002281F0C1
:101E2C0001014068FEF726BF00224068FEF732BF72
:101E3C00002211464068FEF735BF0022114640686B
:101E4C00FEF720BF70B516468EB0044608A8FFF703
:101E5C0055FD1122002103A800F0C9FF304601F006
:101E6C0012F800250A4B009581B25B6803AA304634
:101E7C00FEF794FE20B129462046FFF75FFD03E0F4
:101E8C0003A92046FFF748FD20460EB070BD00BFE9
:101E9C00A4050020024B034A1A6000225A607047C6
:101EAC00AC050020B4310A0810B504460F48FEF703
:101EBC0065FF28B1A4F10D03022B01D8002010BD41
:101ECC0000F074F8FFF72BFF08B1012CF6D9FFF7DF
:101EDC0085FEFFF77FFE18B1A4F11203012BEDD99B
:101EEC00172C8CBF0020012010BD00BFB4050020B2
:101EFC00172838B504460D460AD8FF2908D0FFF735
:101F0C00D3FF28B129462046BDE83840FEF72CBD4A
:101F1C0038BD10B50446FEF72FFD0438C0B20128B9
:101F2C0008D92046FFF7C0FF20B12046BDE810407D
:101F3C00FEF72ABD002010BD70B50C4C0C4E0D4D9B
:101F4C0000212046FEF706FF20460B4C3246294660
:101F5C0000F04CF801212046FEF7FCFE32462946E3
:101F6C002046BDE8704000F041B800BFB405002029
:101F7C0074000020510D0A08C405002013B5084C4C
:101F8C0000231A46194600932046FFF7EDFC204625
:101F9C00044A054902B0BDE8104000F027B800BF64
:101FAC00D805002074000020C5180A0838B50B4D60
:101FBC00296811F001040FD12846FEF76CF858B1CE
:101FCC0021460748FFF770FE2846FEF769F8054AD8
:101FDC000549034800F00AF8014838BDF005002017
:101FEC00F4050020740000205D1C0A080B46014615
:101FFC00184600F0E3BEFEF74CB808B5FEF792FEAB
:10200C00184B1A68D1075CBF01221A60164B1A686C
:10201C00D2075CBF01221A60144B1A68D0075CBF50
:10202C0001221A60124B1A68D1075CBF01221A6098
:10203C00104B1A68D2075CBF01221A600E4B1A684B
:10204C00D0075CBF01221A600C4B1A68D1075CBF29
:10205C0001221A600A4B1A68D2075CBF01221A606F
:10206C00704700BF24060020200600201C0600201C
:10207C001806002014060020100600200C06002074
:10208C0008060020244B1A68D0075CBF01221A6096
:10209C00224B1A68D1075CBF01221A60204B1A68C8
:1020AC00D2075CBF01221A601E4B1A68D0075CBFB6
:1020BC0001221A601C4B1A68D1075CBF01221A60FE
:1020CC001A4B1A68D2075CBF01221A60184B1A68A7
:1020DC00D0075CBF01221A60164B1A68D1075CBF8F
:1020EC0001221A60144B1A68D2075CBF01221A60D5
:1020FC00124B1A68D0075CBF01221A60104B1A6889
:10210C00D1075CBF01221A600E4B1A68D2075CBF64
:10211C0001221A60704700BF5406002050060020B0
:10212C004C060020480600204406002040060020F3
:10213C003C06002038060020340600203006002023
:10214C002C06002028060020244B1A68D0075CBF00
:10215C0001221A60224B1A68D1075CBF01221A6057
:10216C00204B1A68D2075CBF01221A601E4B1A68FA
:10217C00D0075CBF01221A601C4B1A68D1075CBFE8
:10218C0001221A601A4B1A68D2075CBF01221A602E
:10219C00184B1A68D0075CBF01221A60164B1A68DC
:1021AC00D1075CBF01221A60144B1A68D2075CBFBE
:1021BC0001221A60124B1A68D0075CBF01221A6008
:1021CC00104B1A68D1075CBF01221A600E4B1A68BB
:1021DC00D2075CBF01221A60704700BF8406002042
:1021EC00800600207C060020780600207406002063
:1021FC00700600206C060020680600206406002093
:10220C00600600205C06002058060020184B1A6857
:10221C00D1075CBF01221A60164B1A68D2075CBF4B
:10222C0001221A60144B1A68D0075CBF01221A6095
:10223C00124B1A68D1075CBF01221A60104B1A6846
:10224C00D2075CBF01221A600E4B1A68D0075CBF24
:10225C0001221A600C4B1A68D1075CBF01221A606C
:10226C000A4B1A68D2075CBF01221A60704700BF84
:10227C00A4060020A00600209C0600209806002042
:10228C0094060020900600208C0600208806002072
:10229C0081F0004102E000BF83F0004330B54FEA0B
:1022AC0041044FEA430594EA050F08BF90EA020F78
:1022BC001FBF54EA000C55EA020C7FEA645C7FEA0B
:1022CC00655C00F0E2804FEA5454D4EB5555B8BF2E
:1022DC006D420CDD2C4480EA020281EA030382EA9F
:1022EC00000083EA010180EA020281EA0303362D31
:1022FC0088BF30BD11F0004F4FEA01314FF4801C04
:10230C004CEA113102D0404261EB410113F0004F15
:10231C004FEA03334CEA133302D0524263EB4303CC
:10232C0094EA050F00F0A780A4F10104D5F1200E6A
:10233C000DDB02FA0EFC22FA05F2801841F10001C5
:10234C0003FA0EF2801843FA05F359410EE0A5F199
:10235C0020050EF1200E012A03FA0EFC28BF4CF0CA
:10236C00020C43FA05F3C01851EBE37101F0004580
:10237C0007D54FF0000EDCF1000C7EEB00006EEB8D
:10238C000101B1F5801F1BD3B1F5001F0CD3490817
:10239C005FEA30004FEA3C0C04F101044FEA44526E
:1023AC0012F5800F80F09A80BCF1004F08BF5FEAF5
:1023BC00500C50F1000041EB045141EA050130BDD5
:1023CC005FEA4C0C404141EB010111F4801FA4F178
:1023DC000104E9D191F0000F04BF01460020B1FACD
:1023EC0081F308BF2033A3F10B03B3F120020CDA05
:1023FC000C3208DD02F1140CC2F10C0201FA0CF0E3
:10240C0021FA02F10CE002F11402D8BFC2F1200C47
:10241C0001FA02F120FA0CFCDCBF41EA0C019040FD
:10242C00E41AA2BF01EB0451294330BD6FEA040446
:10243C001F3C1CDA0C340EDC04F11404C4F1200231
:10244C0020FA04F001FA02F340EA030021FA04F343
:10245C0045EA030130BDC4F10C04C4F1200220FA9A
:10246C0002F001FA04F340EA0300294630BD21FAD8
:10247C0004F0294630BD94F0000F83F4801306BF9E
:10248C0081F480110134013D4EE77FEA645C18BF92
:10249C007FEA655C29D094EA050F08BF90EA020F29
:1024AC0005D054EA000C04BF1946104630BD91EA21
:1024BC00030F1EBF0021002030BD5FEA545C05D124
:1024CC004000494128BF41F0004130BD14F5800463
:1024DC003CBF01F5801130BD01F0004545F0FE41D7
:1024EC0041F470014FF0000030BD7FEA645C1ABF0C
:1024FC00194610467FEA655C1CBF0B46024650EA43
:10250C00013406BF52EA033591EA030F41F400216E
:10251C0030BD00BF90F0000F04BF0021704730B5F4
:10252C004FF4806404F132044FF000054FF00001C9
:10253C0050E700BF90F0000F04BF0021704730B58A
:10254C004FF4806404F1320410F0004548BF40425F
:10255C004FF000013EE700BF42004FEAE2014FEAB4
:10256C0031014FEA02701FBF12F07F4393F07F4F8F
:10257C0081F06051704792F0000F14BF93F07F4FC1
:10258C00704730B54FF4607401F0004521F0004104
:10259C0020E700BF50EA010208BF704730B54FF08A
:1025AC0000050AE050EA010208BF704730B511F08F
:1025BC00004502D5404261EB41014FF4806404F1C7
:1025CC0032045FEA915C3FF4DCAE4FF003025FEA49
:1025DC00DC0C18BF03325FEADC0C18BF033202EBD1
:1025EC00DC02C2F1200300FA03FC20FA02F001FA2B
:1025FC0003FE40EA0E0021FA02F11444C1E600BFCA
:10260C0070B54FF0FF0C4CF4E06C1CEA11541DBF7C
:10261C001CEA135594EA0C0F95EA0C0F00F0DEF847
:10262C002C4481EA030621EA4C5123EA4C5350EA2C
:10263C00013518BF52EA033541F4801143F480137D
:10264C0038D0A0FB02CE4FF00005E1FB02E506F00E
:10265C000042E0FB03E54FF00006E1FB03569CF063
:10266C00000F18BF4EF0010EA4F1FF04B6F5007F69
:10267C0064F5407404D25FEA4E0E6D4146EB0606DB
:10268C0042EAC62141EA55514FEAC52040EA5E5064
:10269C004FEACE2EB4F1FD0C88BFBCF5E06F1ED80E
:1026AC00BEF1004F08BF5FEA500E50F1000041EB45
:1026BC00045170BD06F0004646EA010140EA0200F2
:1026CC0081EA0301B4EB5C04C2BFD4EB0C0541EA14
:1026DC00045170BD41F480114FF0000E013C00F329
:1026EC00AB8014F1360FDEBF002001F0004170BD4D
:1026FC00C4F10004203C35DA0C341BDC04F1140466
:10270C00C4F1200500FA05F320FA04F001FA05F2F1
:10271C0040EA020001F0004221F0004110EBD370BE
:10272C0021FA04F642EB06015EEA430E08BF20EAEA
:10273C00D37070BDC4F10C04C4F1200500FA04F38D
:10274C0020FA05F001FA04F240EA020001F000411F
:10275C0010EBD37041F100015EEA430E08BF20EA92
:10276C00D37070BDC4F1200500FA05F24EEA020EDA
:10277C0020FA04F301FA05F243EA020321FA04F009
:10278C0001F0004121FA04F220EA020000EBD370C0
:10279C005EEA430E08BF20EAD37070BD94F0000FC0
:1027AC000FD101F00046400041EB010111F4801FF4
:1027BC0008BF013CF7D041EA060195F0000F18BFA5
:1027CC00704703F00046520043EB030313F4801FE1
:1027DC0008BF013DF7D043EA0603704794EA0C0F9B
:1027EC000CEA135518BF95EA0C0F0CD050EA4106B1
:1027FC0018BF52EA4306D1D181EA030101F000412E
:10280C004FF0000070BD50EA410606BF1046194655
:10281C0052EA430619D094EA0C0F02D150EA013661
:10282C0013D195EA0C0F05D152EA03361CBF1046A2
:10283C0019460AD181EA030101F0004141F0FE4141
:10284C0041F470014FF0000070BD41F0FE4141F4C5
:10285C00780170BD70B54FF0FF0C4CF4E06C1CEAC5
:10286C0011541DBF1CEA135594EA0C0F95EA0C0F7A
:10287C0000F0A7F8A4EB050481EA030E52EA033535
:10288C004FEA013100F088804FEA03334FF0805556
:10289C0045EA131343EA12634FEA022245EA111583
:1028AC0045EA10654FEA00260EF000419D4208BF34
:1028BC00964244F1FD0404F5407402D25B084FEAE1
:1028CC003202B61A65EB03055B084FEA32024FF48D
:1028DC0080104FF4002CB6EB020E75EB030E22BFEA
:1028EC00B61A754640EA0C005B084FEA3202B6EBAA
:1028FC00020E75EB030E22BFB61A754640EA5C0059
:10290C005B084FEA3202B6EB020E75EB030E22BFE8
:10291C00B61A754640EA9C005B084FEA3202B6EBE9
:10292C00020E75EB030E22BFB61A754640EADC00A8
:10293C0055EA060E18D04FEA051545EA16754FEA0A
:10294C0006164FEAC30343EA52734FEAC2025FEA28
:10295C001C1CC0D111F4801F0BD141EA00014FF0B7
:10296C0000004FF0004CB6E711F4801F04BF014388
:10297C000020B4F1FD0C88BFBCF5E06F3FF6AFAEA4
:10298C00B5EB030C04BFB6EB020C5FEA500C50F134
:10299C00000041EB045170BD0EF0004E4EEA1131B7
:1029AC0014EB5C04C2BFD4EB0C0541EA045170BDBE
:1029BC0041F480114FF0000E013C90E645EA060E02
:1029CC008DE60CEA135594EA0C0F08BF95EA0C0F30
:1029DC003FF43BAF94EA0C0F0AD150EA01347FF478
:1029EC0034AF95EA0C0F7FF425AF104619462CE74F
:1029FC0095EA0C0F06D152EA03353FF4FDAE1046B2
:102A0C00194622E750EA410618BF52EA43067FF402
:102A1C00C5AE50EA41047FF40DAF52EA43057FF492
:102A2C00EBAE12E74FF0FF3C06E000BF4FF0010C9D
:102A3C0002E000BF4FF0010C4DF804CD4FEA410C01
:102A4C007FEA6C5C4FEA430C18BF7FEA6C5C1BD0CE
:102A5C0001B050EA410C0CBF52EA430C91EA030F4F
:102A6C0002BF90EA020F0020704710F1000F91EAAC
:102A7C00030F58BF994208BF90422CBFD8176FEA7A
:102A8C00E37040F0010070474FEA410C7FEA6C5C48
:102A9C0002D150EA013C07D14FEA430C7FEA6C5C4F
:102AAC00D6D152EA033CD3D05DF8040B704700BF7B
:102ABC008446104662468C461946634600E000BFC9
:102ACC0001B5FFF7B7FF002848BF10F1000F01BD9B
:102ADC004DF808EDFFF7F4FF0CBF012000205DF866
:102AEC0008FB00BF4DF808EDFFF7EAFF34BF0120EB
:102AFC0000205DF808FB00BF4DF808EDFFF7E0FF84
:102B0C0094BF012000205DF808FB00BF4DF808EDD4
:102B1C00FFF7CEFF94BF012000205DF808FB00BF3B
:102B2C004DF808EDFFF7C4FF34BF012000205DF81D
:102B3C0008FB00BF4FEA410C7FEA6C5C02D150EA03
:102B4C00013C0AD14FEA430C7FEA6C5C02D152EA99
:102B5C00033C02D14FF0000070474FF0010070476A
:102B6C004FEA410212F5001215D211D56FF47873A9
:102B7C00B3EB625212D94FEAC12343F0004343EA4C
:102B8C00505311F0004F23FA02F018BF4042704727
:102B9C004FF00000704750EA013005D111F00040B1
:102BAC0008BF6FF0004070474FF00000704700BF47
:102BBC004A0011D212F5001211D20DD56FF47873B0
:102BCC00B3EB62520ED44FEAC12343F0004343EA05
:102BDC00505323FA02F070474FF00000704750EA50
:102BEC00013002D14FF0FF3070474FF000007047BA
:102BFC004FEA4102B2F1E04324BFB3F5001CDCF113
:102C0C00FE5C0DD901F0004C4FEAC0024CEA50704A
:102C1C00B2F1004F40EB830008BF20F00100704779
:102C2C0011F0804F21D113F13872BCBF01F000407C
:102C3C00704741F480114FEA5252C2F11802C2F1AE
:102C4C00200C10FA0CF320FA02F018BF40F001002F
:102C5C004FEAC1234FEAD32303FA0CFC40EA0C00E1
:102C6C0023FA02F34FEA4303CCE77FEA625307D11E
:102C7C0050EA01331EBF4FF0FE4040F44000704755
:102C8C0001F0004040F0FE4040F40000704700BFEF
:102C9C004FF0FF3C06E000BF4FF0010C02E000BF1C
:102CAC004FF0010C4DF804CD4FEA40024FEA4103BE
:102CBC007FEA226C18BF7FEA236C11D001B052EA74
:102CCC00530C18BF90EA010F58BFB2EB030088BF3A
:102CDC00C81738BF6FEAE17018BF40F001007047A9
:102CEC007FEA226C02D15FEA402C05D17FEA236C8B
:102CFC00E4D15FEA412CE1D05DF8040B704700BFD2
:102D0C00844608466146FFE70FB5FFF7C9FF002868
:102D1C0048BF10F1000F0FBD4DF808EDFFF7F4FFA1
:102D2C000CBF012000205DF808FB00BF4DF808ED3A
:102D3C00FFF7EAFF34BF012000205DF808FB00BF5D
:102D4C004DF808EDFFF7E0FF94BF012000205DF87F
:102D5C0008FB00BF4DF808EDFFF7D2FF94BF012030
:102D6C0000205DF808FB00BF4DF808EDFFF7C8FF29
:102D7C0034BF012000205DF808FB00BF42000ED2DA
:102D8C00B2F1FE4F0BD34FF09E03B3EB126209D49A
:102D9C004FEA002343F0004323FA02F070474FF050
:102DAC000000704712F1610F01D1420202D14FF0C5
:102DBC00FF3070474FF00000704700BF10B5054C56
:102DCC0013462CB10A4601460220AFF3008010BD19
:102DDC00204610BD0000000010B5431E0A4491426D
:102DEC0004D011F8014B03F8014FF8E710BD03466E
:102DFC000244934202D003F8011BFAE7704700002B
:102E0C0038B5124B05461C68A36BD3B91820FDF7D7
:102E1C0069FF43F20E33A06303804AF6CD3343803F
:102E2C0041F2342383804EF26D63C3804DF6EC6324
:102E3C000381052343810B23838101220023C0E9F5
:102E4C000423A36B00221D615A6138BD7000002061
:102E5C00024B0146186800F003B800BF7000002058
:102E6C0070B5064608460C4600F00DF8451C294680
:102E7C003046FDF75FFF064618B12A462146FFF79C
:102E8C00ABFF304670BD034613F8012B002AFBD173
:102E9C00181A0138704700001D000A085D000A0866
:102EAC0089000A088D000A0800000000496E697448
:102EBC0069616C697A696E672E2E2E004D4158330C
:102ECC003031303520776173206E6F7420666F75EA
:102EDC006E642E20506C6561736520636865636B4E
:102EEC0020776972696E672F706F7765722E20007C
:102EFC00506C61636520796F757220696E646578BA
:102F0C002066696E676572206F6E20746865207329
:102F1C00656E736F72207769746820737465616471
:102F2C00792070726573737572652E005265636FCC
:102F3C007264206461746100252E326600446973EA
:102F4C00706C61795F486561727452617465004997
:102F5C00523D002C2042504D3D002C2041766720E4
:102F6C0042504D3D00204E6F2066696E6765723F82
:102F7C000000AC00410143029F0350054207560973
:102F8C00640B3F0DB80EAC0F0010000000000000E9
:102F9C0000000000510D0A08530D0A086E616E0006
:102FAC006F766600696E66006261756400536572C7
:102FBC0069616C0055534253657269616C310074E0
:102FCC0079706500706172616D00636D6400696495
:102FDC0000686E64007374726D0066696C74006CCA
:102FEC00766C0061646448616E646C657200726535
:102FFC006D6F766548616E646C657200656E756D9B
:10300C0048616E646C657273004A534F4E53747210
:10301C0065616D4C6F6748616E646C6572006170C0
:10302C007000253031307520005D20002564002CA7
:10303C00200028293A2000205B00636F6465203D46
:10304C00200025690064657461696C73203D200063
:10305C000D0A006C6E00666E00636F64650064653B
:10306C007461696C006E6F6E6500747261636500EB
:10307C00696E666F007761726E006572726F7200B6
:10308C0070616E696300616C6C005A00252B3033E3
:10309C00643A253032750025592D256D2D25645443
:1030AC0025483A254D3A2553257A00617363746996
:1030BC006D65000000000000000000003D130A08D0
:1030CC0043130A0887130A0851130A083F130A0806
:1030DC000000000000000000D5180A08C5180A08F6
:1030EC00C7180A08000000000000000091190A0827
:1030FC00E1190A08EF190A08AD0E0A08CD190A08D9
:10310C0093190A08A9190A08DB190A08BF190A0831
:10311C008D190A080000000000000000311B0A088D
:10312C00811B0A088F1B0A08AD0E0A08451B0A08EA
:10313C00671B0A08531B0A087B1B0A08331B0A0867
:10314C00371B0A0800000000000000005D1C0A0884
:10315C00A71C0A087F1C0A085F1C0A08871C0A089F
:10316C008F1C0A08971C0A089F1C0A080000000004
:10317C0000000000C91D0A08BF1D0A08B51D0A0879
:10318C00331D0A083B110A08A91D0A089D1D0A08CF
:10319C00951D0A088B1D0A08811D0A083D1D0A0889
:1031AC000000000000000000E91D0A08F31D0A08D9
:1031BC00FD1D0A08071E0A08111E0A081D1E0A0812
:1031CC00291E0A08351E0A083D1E0A08471E0A0851
:1031DC00511E0A0800000000000000000000000062
:1031EC0000000000000000000000000000000000D3
:1031FC0000000000000000000000000000000000C3
:10320C0000000000000000000000000000000000B2
:10321C0000000000000000000000000000000000A2
:10322C000000000000000000000000000000000092
:10323C00000000004300000025030A0891040A085E
:10324C005B090A085F090A08910D0A0881110A082E
:10325C0091110A08E9110A08D51D0A08A11E0A08CD
:10326C00451F0A08891F0A080D200A0891200A0820
:10327C0055210A0819220A0800000000000000006D
:04328C00000000003E
:04329000000000003A
:10329400E80300000A000000ECFF1400B7300A083D
:1032A40000000000E0310A0800320A0820320A084F
:1032B400000000000000000000000000000000000A
:1032C40040320A0800000000000000000000000076
:1032D40000000000000000000000000000000000EA
:1032E40000000000000000000000000000000000DA
:1032F40000000000000000000000000000000000CA
:043304001000002095
:10330800FFFFFFFF00000102030405060708090A82
:103318000B0C0D0E0F101112131415161718191A7D
:083328001B1C1D1E1F202800C4
:043330007856341285
:04000005080A001CC9
:00000001FF
